:020000040800F2
:10000000F821002039010008951500085514000852
:1000100091150008F90E00081F37000800000000C5
:10002000000000000000000000000000392B000864
:100030003D1100080000000039200008B52C000820
:100040005301000853010008530100085301000840
:100050005301000853010008530100085301000830
:100060005301000853010008530100085301000820
:100070005301000853010008530100085301000810
:100080005301000853010008530100085301000800
:1000900053010008530100085301000841110008F2
:1000A00053010008C9330008852D000853010008DA
:1000B000132E00082D2E00080D2F000853010008F4
:1000C00053010008530100085301000853010008C0
:1000D0005301000853010008253500084935000880
:1000E0005301000853010008530100087132000851
:1000F0001133000800000000B92F00085301000868
:100100000000000000000000530100085301000837
:10011000530100085301000853010008530100086F
:1001200053010008DFF80CD000F080FB00480047C6
:1001300015640008F821002006488047064800475B
:10014000FEE7FEE7FEE7FEE7FEE7FEE7FEE7FEE787
:10015000FEE7FEE7B92C00082501000840EA01038C
:100160009B0703D009E008C9121F08C0042AFAD26D
:1001700003E011F8013B00F8013B521EF9D2704731
:10018000D2B201E000F8012B491EFBD270470022D9
:10019000F6E710B513460A4604461946FFF7F0FF86
:1001A000204610BD30B480EA010202F0004530F074
:1001B000004221F0004013D090B1C30DD40DC2F322
:1001C0001601C0F31600E41A41F4000140F40002E5
:1001D0007D34914201D3641C00E04900002C02DA16
:1001E00030BC002070474FF400000023914201D33F
:1001F000891A034340084FEA4101F7D151B19142B6
:1002000002D14FF0004105E002D24FF0010101E0C0
:100210006FF0010103EBC450284430BC00F071BA08
:100220002DE9FE4F804681EA0300C00F0C46009086
:1002300021F0004123F00045B8EB0200A94105D2AE
:100240004046214690461C460B46024623F000409D
:10025000104347D0270DC7F30A00C3F30A51029099
:10026000401A019040286BDAC3F3130040F4801B5E
:100270000098924620B10023D2EB030A63EB0B0BEC
:1002800001985946C0F14002504600F009FA06466E
:100290000D4650465946019A00F021FA10EB08002D
:1002A0006141002487EA115284EAE7731A4340D07F
:1002B000009A62B3019A012A4FEA075215DC001B2B
:1002C00061EB02014FF0004202EA0752CDE9004221
:1002D000001C41F5801132462B4600F058FA03B05D
:1002E000BDE8F08F40462146F9E7001B61EB0201B3
:1002F000001C41F5801300185B412018A2F500177F
:1003000047EB030140EAD570B6196D4111E06D0865
:100310004FEA360645EAC0754FEA0752001B61EB0B
:100320000201001C41F5801149084FEA3000001914
:10033000514132462B4603B0BDE8F04F00F018BAE9
:100340000098012240000023D0EB020263EBE0732F
:10035000009821464FEAE074B8EB000061EB04011D
:10036000E9E783F000435BE781F0004158E72DE9BE
:10037000FE4F81EA030404F0004421F000410094A0
:100380004FF0000B23F0004350EA01045ED052EA24
:1003900003045BD0C3F30A54C1F30A552C44A4F2FE
:1003A000F3340194A0FB0254C1F3130141F4801112
:1003B000C3F3130343F4801301FB024400FB034E19
:1003C000840A970A44EA815447EA8357A4FB0768E2
:1003D00002958D0A05FB07854FEA932C04FB0C540C
:1003E0002705029D4FEA065847EA1637B5EB080580
:1003F0006EEB070C870E920E47EA811742EA8312D2
:10040000A7FB0201B6EB0B0164EB00042B0D43EAE2
:100410000C335E1844EB1C50DA465146E7FB0201F0
:10042000C5F313044FEA0B3343EA14534FEA043283
:10043000019C43EA0603A4F10C040294009CCDE95C
:1004400000B400F0A4F903B0BDE8F08F002001462D
:10045000F9E72DE9F04D81EA030404F0004B21F0A7
:10046000004514464FF0000A23F0004150EA05020F
:1004700020D054EA01021DD0C5F30A570246C5F345
:100480001303C1F31300C1F30A5640F4801543F47B
:100490008013A7EB0608101BD64608F2FD3873EB55
:1004A000050002D308F1010801E092185B41B8F1A0
:1004B000000F03DA00200146BDE8F08D00204FF464
:1004C0008011064684460EE0171B73EB050705D323
:1004D000121B63EB050306434CEA010C49084FEA83
:1004E000300092185B4150EA0107EDD152EA030057
:1004F00012D082EA040083EA0501084305D0101BEC
:10050000AB4106D20122002306E000224FF0004357
:1005100002E06FF0010253101AEB06004CEB085199
:1005200010EB0A0041EB0B01BDE8F04D00F020B9E3
:1005300096230022114600F0EDB80EB540F233418B
:1005400002910021CDE900110A460B4600F01FF987
:1005500003B000BD00F0004220F00040C10DC0F328
:10056000160040F400007F2901DA00207047962928
:1005700003DCC1F19601C84001E096398840002AA9
:10058000F4D04042704720F00040C10DC0F3160087
:1005900040F400007F2901DA00207047962903DC2F
:1005A000C1F19601C8407047963988407047C1F341
:1005B0000A5210B5C1F3130140F2FF3341F4801128
:1005C0009A4201DA002010BD40F233439A42A2F26F
:1005D000334203DC524200F072F810BD904010BD6F
:1005E00000F0004230F000400AD0C10D01F560710A
:1005F000C0F3160042EA0151C20840071143704798
:1006000000200146704701F0004330B421F0004162
:1006100050EA010206D00A0DA2F56072C1F313017F
:10062000002A02DC30BC00207047440F44EAC104B9
:10063000C100E01830BC00EBC25000F062B82DE9F8
:10064000F05F0546002092469B4688460646814656
:1006500040241BE0284641464746224600F02FF83A
:1006600053465A46C01A914110D3114618462246A5
:1006700000F016F82D1A67EB01084F4622460120BC
:10068000002100F00DF817EB00094E41201EA4F1E7
:100690000104DFDC484631462A464346BDE8F09F68
:1006A000202A04DB203A00FA02F100207047914032
:1006B000C2F1200320FA03F3194390407047202A27
:1006C00004DB203A21FA02F00021704721FA02F3FC
:1006D000D040C2F120029140084319467047202AB9
:1006E00006DBCB17203A41FA02F043EAE07306E05A
:1006F00041FA02F3D040C2F120029140084319466A
:1007000070470029A8BF7047401C490008BF20F06F
:100710000100704710B4B0FA80FC00FA0CF050EA07
:10072000010404BF10BC704749B1CCF1200421FA88
:1007300004F411FA0CF118BF012121430843A3EB83
:100740000C01CB1D4FEA00614FEA102042BF002090
:1007500010BC704700EBC35010440029A4BF10BC6C
:100760007047401C490008BF20F0010010BC7047D2
:1007700010B5141E73F1000408DA401C41F10001A9
:1007800092185B411A4301D120F0010010BD2DE900
:10079000F04D92469B4611B1B1FA81F202E0B0FAF7
:1007A00080F220329046FFF77BFF04460F4640EA76
:1007B0000A0041EA0B0153465A46084313D011463A
:1007C00053EA010019D0C8F140025046FFF777FF05
:1007D00005460E46504659464246FFF761FF08431C
:1007E00005D0012004E020463946BDE8F08D002008
:1007F000054346EAE0762C4337430A986305E40A4A
:10080000A0EB08000022FD0A44EA47540A3002D552
:1008100000200146E9E7010510196941DDE90845B5
:1008200000196941BDE8F04DA2E70000064C074DF4
:1008300006E0E06840F0010394E8070098471034B0
:10084000AC42F6D3FFF772FC0C7500082C7500085B
:1008500070B58D1810F8014B14F0030201D110F897
:10086000012B231106D110F8013B03E010F8016BB6
:1008700001F8016B521EF9D1ABB110F8012B04F055
:100880000C048A1A0C2C03D0A2EB84129B1C08E0E7
:1008900010F8014BA2EB0422F8E712F8014B01F823
:1008A000014B5B1EF9D5A942D4D3002070BD0000D6
:1008B0002DE9F04F87B04FF47A6940F6D86A40F6D8
:1008C000746B4749C88AFFF738FE0746454A464BCE
:1008D000FFF74DFD0022454BCDE90001FFF7B9FDC3
:1008E00005460022424BFFF742FD424A424BCDE90A
:1008F0000201FFF73CFDCDE90401FFF758FE84B289
:100900003748007A032816D14C4502DD3449087275
:100910000EE0544503DD02203149087208E05C45D1
:1009200003DD01202E49087202E000202C490872E4
:1009300007B0BDE8F08F2A48007A022817D109F1E4
:100940006400844203DD0320254908720EE054450B
:1009500003DD02202249087208E05C4503DD012026
:100960001F49087202E000201D490872E0E71C4898
:10097000007A012817D14C4503DD0320184908727D
:1009800010E00AF1C800844203DD02201449087215
:1009900008E05C4503DD01201149087202E00020F7
:1009A0000F490872C4E70E48007AB8B94C4503DD18
:1009B00003200B49087210E0544503DD022008496A
:1009C00008720AE00BF59670844203DD01200449A9
:1009D000087202E0002002490872A9E700BFA7E7F9
:1009E000F80E00209A9999999999F13F000090404A
:1009F00000408F40C976BE9F1A2FF03F21B1826818
:100A000042F00102826003E0826822F0010282600B
:100A10007047000001460020044A106820F440306E
:100A20000A681043014A1060704700000427014023
:100A300021B1826842F48072826003E0826822F40D
:100A400080728260704721B1826842F400728260D5
:100A500003E0826822F400728260704710B5044699
:100A60000548844207D10121401501F017FB002100
:100A7000601501F013FB10BD002401400246002068
:100A800013680B400BB1012000E00020704700000C
:100A900030B50246002000235068104C20400D79EC
:100AA0000C6844EA05242043506090680C4C2040B8
:100AB000D1E903542C438D682C434D7944EA450415
:100AC00020439060106B20F0F8700C7D641EE4B23F
:100AD000234340EA0350106330BD0000FFFEFFFCDB
:100AE000FDF7FFC0F0B504460D46002000211D2D86
:100AF00011DDE06DA5F11E0606EB4607072606FA96
:100B000007F18843A5F11E0606EB460603FA06F137
:100B10000843E06534E0132D11DDE068A5F114060B
:100B200006EB4607072606FA07F18843A5F11406E7
:100B300006EB460603FA06F10843E06020E0092DC3
:100B400011DD2069A5F10A0606EB4607072606FA1D
:100B500007F18843A5F10A0606EB460603FA06F1FB
:100B6000084320610CE0606905EB4507072606FA9B
:100B700007F1884305EB450603FA06F10843606177
:100B8000072A0FDA206C561E06EB86071F2606FA88
:100B900007F18843561E06EB860605FA06F1084360
:100BA00020644AE00D2A0FDAE06BD61F06EB8607B9
:100BB0001F2606FA07F18843D61F06EB860605FABC
:100BC00006F10843E06338E0132A11DAA06BA2F1C2
:100BD0000D0606EB86071F2606FA07F18843A2F1E9
:100BE0000D0606EB860605FA06F10843A06324E02D
:100BF000192A11DA606BA2F1130606EB86071F268D
:100C000006FA07F18843A2F1130606EB860605FAF9
:100C100006F10843606310E0206BA2F1190606EBB1
:100C200086071F2606FA07F18843A2F1190606EB8C
:100C3000860605FA06F108432063F0BD816841F09D
:100C400080418160704700001CB50121022001F045
:100C5000F5F90120009003208DF8040000208DF8A4
:100C600007006946014800F05BFB1CBD0004024020
:100C700010B5FFF7E9FF00F001F810BD00B593B023
:100C80000121080601F0DAF9364800F093F93648F8
:100C9000019036480290002003900120049000202B
:100CA000059006904FF480700790800008902020F7
:100CB000099000020A9000200B9001A9294800F039
:100CC0001FFA0121274800F069F9012001F090FA8C
:100CD00025485838FFF7C2FE00BF212001F06EFA08
:100CE0000028FAD00121480201F0C8F94FF4003081
:100CF0000C900CA8FFF78EFE00200D9001208DF8BF
:100D000038008DF8390000200F90119001208DF8E7
:100D100048000DA914485838FFF7BAFE02230122F3
:100D2000082111485838FFF7DDFE01210E485838D8
:100D3000FFF789FE01210C485838FFF779FE0121A1
:100D400009485838FFF75AFE00BF40210648583876
:100D5000FFF794FE0028F8D003485838FFF76EFFDD
:100D600013B000BD08600240582401400E0F00205F
:100D700010B504464FF48051164800F036FB08B910
:100D8000012000E00020144908760846007E0CB9D6
:100D9000012100E00021884219D10F48047E0F484C
:100DA000006820B1012806D002280CD107E00320FA
:100DB0000A49086007E000200849086003E00120B4
:100DC0000649086000BF00BF802000F0F1F920460E
:100DD00010BD000000040240F80E0020B80E0020F4
:100DE0001CB50121022001F029F900208DF8040032
:100DF00001208DF80700000300906946014800F0CB
:100E00008FFA1CBD0004024010B50121084601F014
:100E100015F9002025490871C87180200860244810
:100E200000F07EFA01202149C87140200860204866
:100E300000F076FA0121084601F020F90721002090
:100E400001F07CFE80201B4908600020087108200A
:100E5000487101208871084600F0BEF91720164934
:100E6000087001204870022088700120C870084670
:100E700000F092FB0621002001F060FE40200D49A9
:100E80000860002008710820487101208871084618
:100E900000F0A2F9172008490870002048700120CE
:100EA0008870C870084600F077FB10BDC40E0020A3
:100EB00000000240BC0E0020CC0E00201CB5012119
:100EC000022001F0BBF82020009001208DF80400E2
:100ED00000208DF806008DF8070003208DF805002E
:100EE0006946044800F01CFA2021024800F08FFAFD
:100EF0001CBD00000004024000BFFEE7034800687C
:100F000040F001000149086070470000043C0240C5
:100F100070B504460D460426700300F0C1F906467C
:100F2000042E04D12570400300F0BAF9064630467D
:100F300070BD70B504460D460426700300F0B0F98C
:100F40000646042E04D12580400300F0A9F9064688
:100F5000304670BD70B504460D460426700300F09F
:100F60009FF90646042E04D12560400300F098F94D
:100F70000646304670BD00000548006800F00100DC
:100F800028B10448024908310860034808607047E6
:100F9000043C0240EFCDAB890504030221B1026895
:100FA00042F00102026004E002684FF6FE731A404C
:100FB0000260704701684FF6FE7211400160002127
:100FC000016041608160C1604B49884208D14A4953
:100FD0000839496841F00F01474A083A51608AE0F0
:100FE00045491431884208D143490839496841F0DC
:100FF000F001414A083A51607DE03F49283188427A
:1010000008D13D490839496841F470613A4A083AC3
:10101000516070E038493C31884208D1364908397E
:10102000496841F47041344A083A516063E03249FA
:101030005031884208D130490839496841F470215B
:101040002D4A083A516056E02B496431884208D154
:1010500029490839496841F47001274A083A516022
:1010600049E025497831884208D12349083949683F
:1010700041F07061204A083A51603CE01F498842C3
:1010800006D1011F096841F00F01021F116032E013
:101090001A491431884208D11849091F096841F0DA
:1010A000F001164A121F116025E0144928318842C8
:1010B00008D11249091F096841F470610F4A121FD3
:1010C000116018E00D493C31884208D10B49091FD5
:1010D000096841F47041094A121F11600BE0074989
:1010E0005031884207D10549091F096841F4702130
:1010F000024A121F116070470860024008640240F3
:1011000010B50022026847F6F0739A430C6A8B68A8
:1011100023430C6923434C6923438C692343CC69E3
:1011200023434C6A23438C6A23431A430260CB68EF
:1011300043600B6883604B68C36010BD704700005C
:1011400010B5802000F03CF808B3802000F02AF8A9
:1011500001F06AFA12480068401C1149086008460C
:101160000068032801DD002008600D48006820B9F0
:1011700000F018FBC82002F023FF43F67F6142F223
:101180000F7001F091FE0649087800F0EAFA40205D
:1011900000F016F810B1402000F004F810BD000077
:1011A000B80E002001490860704700001404014097
:1011B000024909680143014A116070471004014067
:1011C00001460020034A12680A400AB1012000E0EB
:1011D0000020704714040140002123498279002A2D
:1011E0003AD00A46126803689A430B461A600A1DF1
:1011F000126803689A430B1D1A60027911440A6849
:1012000003681A430A60184A0832126803689A434E
:10121000154B08331A601A1D126803689A43124B63
:101220000C331A604279102A0ED11A1F1268036813
:101230001A430D4B08331A601A1D126803681A43CB
:10124000094B0C331A600DE00749427911440A68D2
:1012500003681A430A6005E0027911440A680368CA
:101260009A430A60704700000004014004200B49C3
:10127000096801F0010109B101200EE00749096880
:1012800001F4807109B1022007E00449096801F402
:10129000F05109B1032000E004207047183C0240DF
:1012A00008B5024604200090FFF7E0FF009003E03D
:1012B000FFF7DCFF0090521E9DF80000012801D1CD
:1012C000002AF5D10AB9052000909DF8000008BD5C
:1012D00010B503F02BFB0F490968401AB0F57A7F6F
:1012E00017D90D480068401C0B49086003F01EFB2D
:1012F0000849086008480068B4280AD9002006494F
:1013000008600649087040F67F4142F20F7001F014
:1013100021FE10BD580000205C000020520000207B
:10132000F0B502460B46002100240025002000BF36
:1013300035E0012606FA01F41E6806EA0405A54216
:101340002CD110684F000326BE40B0431E794F00D9
:10135000BE40304310601E79012E02D01E79022E4D
:1013600012D190684F000326BE40B0435E794F0013
:10137000BE4030439060908801268E40B0439E79F5
:101380008E40B6B230439080D0684F000326BE40F6
:10139000B043DE794F00BE403043D060491C102975
:1013A000C7D3F0BDF0B5002300244D07ED0E02FABF
:1013B00005F3CE1000F1200555F826504E07F70E24
:1013C0000F26BE40B543CF1000F1200646F8275047
:1013D000CE1000F1200555F8265045EA0304CE1042
:1013E00000F1200545F82640F0BD02460020138A92
:1013F0000B400BB1012000E00020704702460020A6
:10140000938A0B400BB1012000E00020704741831C
:1014100070470183704700001CB50121022000F0D5
:101420000DFE0420009001208DF8040000208DF8AE
:1014300006008DF8070003208DF805006946044872
:10144000FFF76EFF04210248FFF7E3FF1CBD000019
:101450000004024000BFFEE710B504468021124898
:10146000FFF7D7FF04F0CEFF012C04D180210E48F6
:10147000FFF7CDFF03E080210B48FFF7CAFF04F020
:10148000C1FF40210848FFF7C4FF04F0BBFF402123
:101490000548FFF7BCFF04F0B5FF80210248FFF7C5
:1014A000B8FF04F0AFFF10BD0004024010B54021AA
:1014B0000948FFF7AEFF80210748FFF7AAFF04F0B5
:1014C000A1FF80210448FFF7A2FF40210248FFF757
:1014D0009EFF04F097FF10BD0004024010B54021AC
:1014E0000648FFF796FF80210448FFF790FF04F0BD
:1014F00089FF80210148FFF78CFF10BD00040240E6
:1015000010B580210D48FFF784FF04F07BFF4021D8
:101510000A48FFF77EFF04F075FF08481030008886
:1015200000F0800008B1012400E0002440210348BD
:10153000FFF76DFF04F066FF204610BD0004024077
:101540001CB50121084600F079FD10200090012013
:101550008DF8040000208DF806008DF807000220A9
:101560008DF8050069460948FFF7DAFE10210748A3
:10157000FFF74FFF2020009069460448FFF7D0FE98
:1015800020210248FFF745FF1CBD0000000002407B
:1015900000BFFEE77047000070B5002100230F2256
:1015A000C4781CB3174C246804F4E064C4F5E06408
:1015B000C4F30721C1F10404E3B20A4144789C401A
:1015C000E1B28478144021430C07210E0E4C0578BB
:1015D0006155047804F01F050124AC4005786D11B5
:1015E000AD0005F1E025C5F8004109E0047804F0FC
:1015F0001F050124AC40054D0678761145F82640BC
:1016000070BD00000CED00E000E400E080E100E0CF
:1016100002490143024A1160704700000000FA05C8
:101620000CED00E070B5002418E004F1B0000021DA
:1016300000F0C5FC0021084600F0C1FC002110208C
:1016400000F0BDFC002505E00121002000F0B7FC02
:10165000681CC5B2802DF7DB601CC4B2042CE4DB2F
:1016600070BD2DE9F84307460D4690464FF000093E
:1016700000242CE0C4F10100C1B20A2004F08EFF66
:10168000B978B1FBF0F00A21B0FBF1F201FB1206D0
:10169000B9F1000F0DD1012C0BDA46B9102001234E
:1016A000002241460090284600F07EFA0DE04FF0FF
:1016B00001091020082101FB04510090C8B2012348
:1016C0003246414600F070FA00BF601CC4B2022CE2
:1016D000D0DB05F11001C8B21A22414600F0DEF954
:1016E000002433E0C4F10100C1B20A2004F056FF27
:1016F000F978B1FBF0F00A21B0FBF1F201FB120620
:10170000B9F1000F12D1012C10DA6EB9102005F1D9
:101710002001082202FB04110090C8B2012300221C
:10172000414600F041FA0FE04FF00109102005F1A9
:101730002001082202FB04110090C8B201233246A6
:10174000414600F031FA00BF601CC4B2022CC9DB74
:1017500005F13001C8B21B22414600F09FF9BDE8F7
:10176000F88310B5044624B1012C05D0022C09D110
:1017700005E000F065F805E000F004FB02E000F091
:1017800093FB00BF00BF10BD10B500218D2000F0FD
:1017900016FC0021102000F012FC0021AE2000F009
:1017A0000EFC10BD10B500218D2000F008FC0021BA
:1017B000142000F004FC0021AF2000F000FC10BD5C
:1017C00038B50446002204211C4800F031FA0022FA
:1017D0006E211A4800F02EF900231A467F217C2042
:1017E00000F078F8022301221D21002000F072F899
:1017F000022301227F21542000F06CF803231A46B3
:101800007F21002000F066F8172201211E2000F041
:1018100045F9102004232246012100902E2000F0DB
:10182000C3F910236D2201214E2000F06BF9102323
:101830006C220121562000F065F938BDF80E002019
:1018400038B500220421204800F0F2F900226E2170
:101850001D4800F0EFF8022401231A467F210020E2
:1018600000F038F8022301220A21002000F032F8AB
:10187000022301227F21732000F02CF803231A4653
:101880007F21002000F026F8102000900E48428AA8
:10189000214604230B2000F087F9214610230BA2D8
:1018A0002B2000F0E9F9102000900748828A214699
:1018B0000423432000F078F92146102304A263207A
:1018C00000F0DAF938BD0000F80E00206D6C2F0032
:1018D0006D6C00002DE9F04705460E461746984608
:1018E0003C4612E02146284600F090F8A94607E061
:1018F0000121002000F063FB09F1010000F0FF0965
:10190000701C8145F4DB601CC4B208F10100844204
:10191000E8DBBDE8F08700001CB50121022000F0E3
:101920008DFBC020009001208DF804008DF806008A
:1019300002208DF8050069463348FFF7F1FCC0210D
:101940003148FFF766FD02F006FB0021AE2000F0F3
:1019500036FB0021402000F032FB0021B02000F0D7
:101960002EFB0021C82000F02AFB0021812000F07E
:1019700026FB0021FF2000F022FB0021A12000F027
:101980001EFB0021A62000F01AFB0021A82000F079
:1019900016FB00211F2000F012FB0021D32000F0D5
:1019A0000EFB0021084600F00AFB0021D52000F0C4
:1019B00006FB0021F02000F002FB0021D92000F0FE
:1019C000FEFA0021222000F0FAFA0021DA2000F0CD
:1019D000F6FA0021022000F0F2FA0021DB2000F0EC
:1019E000EEFA0021492000F0EAFA00218D2000F0F3
:1019F000E6FA0021142000F0E2FA0021AF2000F006
:101A0000DEFAFFF70FFE1CBD0004024070B504466D
:101A10000D4605F1B000002100F0D1FA102141EA95
:101A20001410002100F0CBFA04F00F00002100F0A8
:101A3000C6FA70BD2DE9F04105460E461746002353
:101A40001A467F217C20FFF745FFFEF731FF39461C
:101A50003046FFF7DBFF287E78B900240AE0297AB8
:101A6000C1EBC1010B4A02EB4101085D012100F00D
:101A7000A6FA641C0E2CF2DB09E0002405E00649FE
:101A8000085D012100F09BFA641C102CF7DBBDE817
:101A9000F0810000AB6C0008E36C00082DE9F04118
:101AA00080460E461546002731464046FFF7AEFFFA
:101AB00000240AE0124A02EB8511085D012100F0C2
:101AC0007EFA781CC7B2601CC4B2102CF2DB701C0A
:101AD000C1B24046FFF79AFF00240CE06900491CA0
:101AE000074A02EB4111085D012100F068FA781CF9
:101AF000C7B2601CC4B2102CF0DBBDE8F08100005E
:101B0000B80000202DE9F04707460E46904699465A
:101B100000250024A8F12000C5B27F2F02DD002798
:101B2000B01CC6B2B9F1100F24D131463846FFF7C8
:101B30006DFF002408E004EB0511194A505C0121F7
:101B400000F03DFA601CC4B2082CF4DB701CC1B27A
:101B50003846FFF75BFF002409E004EB051108316C
:101B60000F4A505C012100F02AFA601CC4B2082C14
:101B7000F3DB12E031463846FFF748FF00240AE065
:101B800005EB4501074A02EB4101085D012100F028
:101B900016FA601CC4B2062CF2DBBDE8F087000028
:101BA0001B6F0008F36C00082DE9FF5F07469146A4
:101BB0001E460E9D4FF0000A002435E0301B401EEB
:101BC000C1B20A2004F0EAFCB9FBF0F00A21B0FB34
:101BD000F1F201FB1208BAF1000F14D1701EA042FD
:101BE00011DDB8F1000F0CD1AB4605EBDB714910EC
:101BF00001FB0471C8B22B4620220199FFF782FF36
:101C000010E04FF0010AAB4605EBDB71491001FB18
:101C10000471C8B208F13001CAB22B460199FFF72E
:101C200071FF00BF601CC4B2B442C7DBBDE8FF9FB8
:101C30002DE9F04105460E46174600231A466D2150
:101C40000B20FFF747FE00210846FFF7DFFE0024C8
:101C50000BE0E97901EB410202EBC101054A1144B5
:101C6000085D012100F0ABF9641C0B2CF1DBBDE831
:101C7000F0810000746C00082DE9F04104460F4625
:101C80001546984600260FE0AA5D43463946204691
:101C9000FFF738FF04F10800C4B2782C02DD0024FD
:101CA000B81CC7B2701CC6B2A85D0028ECD1BDE854
:101CB000F08100002DE9F041002700210846FFF7E0
:101CC000A5FE00241CE021460020FFF79FFE002611
:101CD00012E000250CE006EBC4010B4A02EB0111F7
:101CE000485D012100F06BF9781CC7B2681CC5B2D1
:101CF000102DF0DB701CC6B2082EEADB601CC4B2EB
:101D0000042CE0DBBDE8F081B808002038B50446BB
:101D1000002204211948FFF78BFF00226E2117488B
:101D2000FFF788FE0223012218210020FFF7D2FDD1
:101D3000022301227F216920FFF7CCFD03231A46ED
:101D40007F210020FFF7C6FD182201211920FFF78F
:101D5000A5FE192201212920FFF7A0FE102004234F
:101D60002246012100903920FFF71EFF102304A214
:101D700001215920FFF780FF38BD0000F80E002038
:101D80006D6C000038B5022400F006FE00F03CFD4A
:101D9000002211464348FFF74BFF00226E214148C5
:101DA000FFF748FE042221460720FFF777FE3D4853
:101DB000C068002837DA3B49C868002801DB0146C3
:101DC00000E04142CDB210232D2221461720FFF71B
:101DD00099FE102002232A46214600901F20FFF77B
:101DE000E3FE052221462F20FFF758FE601CC3B2F8
:101DF000224606210020FFF76DFD601CC3B222467B
:101E000040213E20FFF766FD601CC3B222467F21C1
:101E10007120FFF75FFD601EC3B2C2B27F210020B8
:101E2000FFF758FD29E0102000901E4802232146AC
:101E3000C2681720FFF7B8FE052221462720FFF7CA
:101E40002DFE601CC3B2224606210020FFF742FD92
:101E5000601CC3B2224640213720FFF73BFD601CC7
:101E6000C3B222467F217120FFF734FD601EC3B24A
:101E7000C2B27F210020FFF72DFD03222146412021
:101E8000FFF70CFE102000900648027C022321463A
:101E90005120FFF789FE062221466120FFF7FEFD53
:101EA00038BD0000F80E002010B502220A210748B4
:101EB00000F091F8002204210448FFF7B9FE002247
:101EC0006E210248FFF7B6FD10BD0000F80E00209D
:101ED0002DE9F84307460D4690464FF000090024CF
:101EE0002CE0C4F10100C1B20A2004F057FB39799B
:101EF000B1FBF0F00A21B0FBF1F201FB1206B9F1DF
:101F0000000F0DD1012C0BDA46B91020012300225D
:101F1000414600902846FFF747FE0DE04FF00109CB
:101F20001020082101FB04510090C8B20123324661
:101F30004146FFF739FE00BF601CC4B2022CD0DB63
:101F400005F11001C8B210233A224146FFF7DAFD2D
:101F5000002430E0C4F10100C1B20A2004F01EFBED
:101F60007979B1FBF0F00A21B0FBF1F201FB120626
:101F7000B9F1000F0FD1012C0DDA56B9102005F17F
:101F800014010090C8B2012300224146FFF70CFE65
:101F90000FE04FF001091020A11C082202FB0151A3
:101FA000091D0090C8B2012332464146FFF7FCFDEF
:101FB00000BF601CC4B2022CCCDBBDE8F88370B556
:101FC00004460D461DB1E0B201F057FD02E0E0B25B
:101FD00001F036FD70BD70B505460C46164601236E
:101FE0001A467F210020FFF775FC032302222146B9
:101FF0000020FFF76FFC032302224F214A20FFF746
:1020000069FC04F18301C8B2032302227F21FFF798
:1020100061FC324621462846FFF723FB04F14600C7
:10202000C1B232462846FFF753FF70BD014908622E
:102030007047000000000E427047000029B1064AB8
:1020400012680243044B1A6004E0034A1268824398
:10205000014B1A60704700001C38024029B1064A43
:1020600012680243044B1A6004E0034A1268824378
:10207000014B1A60704700002438024029B1064A1B
:1020800012680243044B1A6004E0034A1268824358
:10209000014B1A60704700002038024029B1064AFF
:1020A00012680243044B1A6004E0034A1268824338
:1020B000014B1A607047000014380240F0B500214F
:1020C00000220023002600240025374F3F6807F038
:1020D0000C0131B1042912D0082913D00C2934D1B4
:1020E00013E0314F3F1F3F68C7F342356F1C4FF07D
:1020F000010C0CFA07FC4FEACC37076033E02B4F9A
:10210000076030E02A4F07602DE0274F3F6807F453
:102110007012254F3F6807F44003264F07EB9247A4
:102120003A78012707EB93531F4F3F6807F4803637
:102130002EB91E4F5743B7FBF3F7076004E01C4F5F
:102140005743B7FBF3F707600DE0174F3F1F3F689A
:10215000C7F342356F1C4FF0010C0CFA07FC4FEA35
:10216000CC37076000BF00BF0F4F3F6807F0F0019A
:102170000909114F7C5C0768E74047600A4F3F68D8
:1021800007F4E061090A0C4F7C5C4768E740876010
:10219000054F3F6807F46051C90A074F7C5C4768E8
:1021A000E740C760F0BD0000083802400024F4009A
:1021B00000127A00850000208E00002010B5014634
:1021C0000022002300204A11012A02D1074C236873
:1021D00002E0064C3434236801F01F0201249440CD
:1021E0001C400CB1012000E0002010BD003802406E
:1021F0000149086070470000000047420021024A80
:102200001170114608707047353802400149086066
:1022100070470000D8064742002100F44032B2F572
:10222000403F08D10C4A116821F0C04100F0C04283
:102230001143094A1160084A3432126822F44032CC
:10224000054B34331A601A46126800F440331A43BF
:10225000014B34331A60704700380240014600BF1A
:10226000080900EB8000420001F00F001044C0B2EA
:1022700070470146002204E0501CC2B2A1F10A00DE
:10228000C1B20A29F8DA100741EA1060704700006D
:1022900010B501210807FFF7E1FE0120FFF7C6FE98
:1022A0000120FFF7ABFF00BF4920FFF787FF0028A1
:1022B000FAD04FF48030FFF7AFFFFF2005490860E8
:1022C0007F20054908600120FFF7A0FF00F0F8F922
:1022D00010BD0000DC0E0020D80E002008B5002242
:1022E000009200200021104A126802F04002CAB990
:1022F000421E0D4B1A6000BF0B4A126802F04001EB
:10230000009A521C0092009AB2F5005F01D0002999
:10231000F2D0054A126802F040020AB1012002E040
:10232000002000E0012008BD0C28004003480068A0
:1023300020F0800001490860704700000C28004030
:1023400010B5002000F066F843F2F22188420CD06C
:10235000FFF79EFF0548006805494860054800688A
:1023600088600020086000F031F910BDD80E002010
:10237000140F0020DC0E002070B506460C46002528
:102380000E4800680E4900EA0105280CE070C5F30C
:102390000420607005F03F00A070C5F3423020704B
:1023A0005EB9E078FFF75AFFE0706078FFF756FFFC
:1023B0006070A078FFF752FFA07070BD0428004045
:1023C0003FFFFF0070B506460C4600250F48006829
:1023D0000F4900EA0105C5F305402070C5F306204A
:1023E000607005F07F00A07005F48000000CE070C4
:1023F0005EB92078FFF732FF20706078FFF72EFF7C
:102400006070A078FFF72AFFA07070BD0028004020
:102410007F7F7F0008B501460020009004480090AF
:10242000009800EB810000900098006808BD000053
:10243000502800402DE9F04105460C4600260027B3
:102440004DB9607800F01000102804D1607820F0B9
:1024500010000A30607005B908E06078FFF7FEFEF2
:102460000646A078FFF7FAFE064600BF55B1E078B1
:102470000004617840EA0120A1780843217840EA0D
:10248000413611E0E078FFF7F4FE4FEA004860784B
:10249000FFF7EFFE48EA0028A078FFF7EAFE48EAD7
:1024A0000008207848EA4036CA20124908605320C4
:1024B0000860FFF713FF08B9002714E00E4830400A
:1024C0000C4920390860FFF731FF0A481C380068C2
:1024D00000F0200030B900F0F3F808B9002702E05E
:1024E000012700E00127FF20024908603846BDE8C7
:1024F000F0810000242800403FFFFF002DE9F0415B
:1025000005460C46002600274DB92E48006800F00D
:10251000400000B102E00020E07000BF0DE029485B
:10252000006800F0400020B12078FFF797FE0646D3
:1025300002E00020E07000BF00BF55B12078000429
:10254000617840EA0120A1780843E17840EA014639
:1025500011E02078FFF78DFE4FEA00486078FFF722
:1025600088FE48EA0028A078FFF783FE48EA0008C2
:10257000E07848EA0046CA2012491C31086053201E
:102580000860FFF7ABFE08B9002713E00E483040A3
:102590000C4908390860FFF7C9FE0A48006800F0D6
:1025A000200030B900F08CF808B9002702E00127BC
:1025B00000E00127FF2003491C3108603846BDE8D0
:1025C000F0810000082800407F7F7F0010B50020C8
:1025D0001249C87012480079087011484079487053
:1025E0000F48807988700E480078A0F5FA600D4990
:1025F000C8700B48807848700948C07888700749CF
:102600000020FFF77BFF07490020FFF713FF43F28D
:10261000F221002000F084F810BD0000D00E002050
:10262000F80E0020D40E002010B50B490020FFF753
:10263000A3FE0A490020FFF7C5FE084800780849B4
:10264000087106484078487103484078887002480D
:102650008078C87010BD0000D40E0020D00E00207D
:10266000F80E002010B50F490020FFF785FE0E4937
:102670000020FFF7A7FE0C4800780C4908700A48B4
:1026800040780B4908700748C07800F5FA6009499E
:102690000880044840780849087002488078074953
:1026A000087010BDD40E0020D00E00205000002075
:1026B000510000204C0000204E0000204F00002060
:1026C00008B50022009200200021CA22134B1A6094
:1026D00053221A60114A183A126822F0A0020F4BD6
:1026E000183B1A6000BF0D4A183A126802F0200128
:1026F000009A521C0092009AB2F5004F01D00029B6
:10270000F1D0064A183A126802F020020AB10120FC
:1027100000E00020FF22014B1A6008BD2428004081
:1027200008B500220092044A0092009A02EB80024F
:102730000092009A116008BD5028004070B54FF417
:1027400080411948FEF763FE002400BF4FF400519A
:102750001548FEF74AFE0028F8D1002513E04FF493
:1027600080411148FEF755FE64004FF480410E4849
:10277000FEF74DFE4FF400510B48FEF736FE00B158
:10278000641C681CC5B2182DE9DB4FF48041064873
:10279000FEF73FFE84F400044FF480410248FEF748
:1027A00036FE204670BD00000004024070B50025D2
:1027B000002480211348FEF72CFE00BF17E06006BE
:1027C000040E40210F48FEF722FE03F01BFE4021BD
:1027D0000C48FEF71EFE0B481030008800F0800009
:1027E00010B144F0010401E004F0FE046D1C082D5A
:1027F000E5DB03F007FE40210248FEF708FE204615
:1028000070BD0000000402402DE9F04F85B00020AB
:102810000490039083460290FEF748FE802001F06A
:10282000D7F8FEF76DFE002846D1F52001F0D0F86C
:10283000FEF766FE00283FD100BFFEF737FE81207D
:1028400001F0C6F8FEF75CFE0128F6D0FFF7AEFFF8
:1028500003900120FEF700FEFFF7A8FF834600204B
:10286000FEF7FAFDFEF73AFE0BF0FC0B03984BEA7D
:10287000002004900498FDF760FE06460022124BEB
:10288000FDF775FD0022114BCDE90001FDF7E1FDDB
:10289000044600220E4BFDF764FD8046FDF7B3FEB3
:1028A00002900298FDF76FFE00F0FF0A094880F8D9
:1028B00010A005B0BDE8F08FFEF710FE054880F8C7
:1028C00010A000BFF5E7000000405F400000F040AE
:1028D00000001840F80E00202DE9F04F85B00020D0
:1028E0000490039082460290FEF7E0FD802001F004
:1028F0006FF8FEF705FE002844D1F52001F068F8D6
:10290000FEF7FEFD00283DD100BFFEF7CFFD812080
:1029100001F05EF8FEF7F4FD0128F6D0FFF746FF60
:1029200003900120FEF798FDFFF740FF824600204C
:10293000FEF792FDFEF7D2FD0AF0FC0A03984AEA80
:10294000002004900498FDF7F8FD064600220F4B86
:10295000FDF70DFD00220E4BCDE90001FDF779FDDD
:10296000044600220B4BFDF7FCFC8046FDF74BFEB6
:1029700002900298FDF707FE00F0FF0B584605B0E5
:10298000BDE8F08FFEF7AAFD00BFF8E700405F400A
:102990000000F040000018402DE9F04F85B0002005
:1029A00004900390824602908346FEF77FFD8020CC
:1029B00001F00EF8FEF7A4FD002845D1F32001F048
:1029C00007F8FEF79DFD00283ED100BFFEF76EFD23
:1029D000812000F0FDFFFEF793FD0128F6D0FFF700
:1029E000E5FE03900120FEF737FDFFF7DFFE82468C
:1029F0000020FEF731FDFEF771FD0AF0FC0A039896
:102A00004AEA002004900498FDF797FD0646124A12
:102A1000124BFDF7ACFC0022114BCDE90001FDF794
:102A200018FD04460F4A104BFDF79BFC8046FDF74E
:102A3000EAFD02900298FDF78DFD83460B48C0F831
:102A40000CB005B0BDE8F08FFEF748FD0748C0F8B0
:102A50000CB000BFF5E70000D7A3703D0AF7654052
:102A60000000F040CDCCCCCCCC6C4740F80E002020
:102A70002DE9F04F85B04FF0000B00200490824606
:102A800003900290FEF712FD802000F0A1FFFEF7F8
:102A900037FD002842D1F32000F09AFFFEF730FD09
:102AA00000283BD100BFFEF701FD812000F090FF20
:102AB000FEF726FD0128F6D0FFF778FE04900120EE
:102AC000FEF7CAFCFFF772FE82460020FEF7C4FC48
:102AD000FEF704FD0AF0FC0A04984AEA002B584667
:102AE000FDF72BFD0F4A104BCDE90001FDF73FFC30
:102AF000804600220D4BFDF7ACFC06460C4A0D4B00
:102B0000FDF72FFC0446FDF77EFD03900398FDF7CB
:102B100021FD0290029805B0BDE8F08FFEF7DEFCC3
:102B200000BFF8E7D7A3703D0AF765400000F0400A
:102B3000CDCCCCCCCC6C47407047000030B50022E7
:102B40008B071C0F0F2303FA04F20B4B8C1053F866
:102B500024309343084C8D1044F8253023468C10C4
:102B600053F824308C07240F00FA04F42343024C5A
:102B70008D1044F8253030BD080001400CB5002010
:102B8000019000903E48006840F480303C49086065
:102B900000BF3B48006800F4003000900198401CE2
:102BA0000190009818B90198B0F5A04FF1D13448C0
:102BB000006800F4003010B10120009001E0002016
:102BC00000900098012859D12E48006840F0040078
:102BD0002C4908600846006840F00200086008467A
:102BE000006840F00100086025482430006840F08B
:102BF0008050234924310860C8142349086000BF6D
:102C00002148406800F010000028F9D11C48083025
:102C100000681B49083108600846006808600846DB
:102C2000006808600846006820F47D0008600846D7
:102C3000006840F4110008601148006840F080709E
:102C40000F49086000BF0E48006800F000700028BF
:102C5000F9D00B480830006820F00300084908311B
:102C600008600846006840F00300086000BF0448A0
:102C70000830006800F00C000C28F8D10CBD0000F2
:102C800000380240003C024000700040042808D197
:102C90004FF0E021096941F004014FF0E022116199
:102CA00007E04FF0E021096921F004014FF0E02234
:102CB000116170477047000010B51548006840F476
:102CC00080701349086012480830006811490840B4
:102CD0000F49083108600E4800680F4908400C4948
:102CE00008600846006820F4802008600848083022
:102CF000006820F47D000649083108600020091DA5
:102D00000860FFF73BFF4FF000600449086010BD0A
:102D1000003802400CC0FF88FEFFFEEE08ED00E028
:102D20007FB505460C4601210820FFF7A7F902955B
:102D3000ADF804400020ADF80C00ADF8060001A984
:102D40000F4800F0A1FB1A208DF8000002208DF83A
:102D500001008DF8020001208DF803006846FEF79F
:102D60001BFC0121064800F065FB012211460448C6
:102D700000F080FB0121024800F05FFB7FBD0000F6
:102D8000000C014010B501210A4800F062FB80B13F
:102D90000121084800F04EFB00220121054800F007
:102DA00069FB0021034800F048FBFEF73BFCFEF7FF
:102DB000EBFC10BD000C01407FB505460C4601211F
:102DC0000846FFF74BF90295ADF804400020ADF836
:102DD0000C00ADF8060001A94FF0804000F054FB54
:102DE00001221146900700F045FB1C208DF80000E1
:102DF00001208DF8010000208DF8020001208DF8DF
:102E000003006846FEF7C8FB0121880700F015FBA8
:102E10007FBD10B50121880700F01BFB28B10121FF
:102E2000880700F007FB00F00FFD10BD10B5012171
:102E3000054800F00EFB28B10121034800F0FAFA22
:102E400002F02EFE10BD0000000400407FB50546D4
:102E50000C4601210220FFF701F90295ADF804406C
:102E60000020ADF80C00ADF8060001A90D4800F0F7
:102E70000BFB012211460B4800F0FCFA1D208DF8D7
:102E8000000000208DF801008DF8020001208DF86F
:102E900003006846FEF780FB0121024800F0CDFAEE
:102EA0007FBD0000000400407FB505460C460121AF
:102EB0000420FFF7D3F80295ADF804400020ADF8E8
:102EC0000C00ADF8060001A90F4800F0DDFA1E2045
:102ED0008DF8000002208DF801008DF8020001201D
:102EE0008DF803006846FEF757FB0121064800F005
:102EF000A4FA0121044800F09DFA0122114602487B
:102F000000F0B8FA7FBD00000008004010B50121B4
:102F10000E4800F09EFAB8B101210C4800F08AFA80
:102F200000210420FFF79AF80021084800F085FAF4
:102F300000220121054800F09DFAFEF773FBFEF721
:102F400023FC03200249086010BD00000008004077
:102F5000B80E00207FB505460C4601210820FFF77A
:102F60007DF80295ADF804400020ADF80C00ADF8F6
:102F7000060001A90F4800F087FA2E208DF8000006
:102F800001208DF8010000208DF8020001208DF84D
:102F900003006846FEF700FB0121064800F04DFAE9
:102FA0000121044800F046FA01221146014800F0D0
:102FB00061FA7FBD000C004010B50121614800F0AE
:102FC00048FA002870D001215E4800F033FA002151
:102FD0005C4800F032FA002201215A4800F04AFA17
:102FE00059480078062816D2DFE800F00316465F3D
:102FF000799056A000F05EFD04215848FEF707FACC
:1030000040F67F4142F20F70FFF7A4FF4E48007870
:10301000401C4D49087093E04B48017850A000F0E7
:1030200049FD55A000F046FD04214C48FEF7F1F99A
:1030300040F67F414CF24F30FFF78CFF53A000F079
:1030400039FD57480078012815D156A000F032FD0F
:1030500040F67F414EF65F20FFF77CFF3A4800784C
:10306000401C39490870FFF737FC52490874FFF7D4
:10307000FFFC5049C86063E04FA000F01BFD03F067
:103080005DFC504802F0FCFF02F0B8FF02F072FF56
:1030900040F67F4147F22F50FFF75CFF2A48007847
:1030A000401C294908704BE04BE047A000F002FDAE
:1030B00040F67F4142F20F70FFF74CFF3D48008819
:1030C00060B146A000F0F6FC40F67F414748FFF7AC
:1030D00041FF1D480078401C1B49087030E044A0A7
:1030E00000F0E8FC04211D48FEF791F940F67F410D
:1030F00047F6DE50FFF72EFF13480078401C1249B8
:10310000087010213D48FEF784F919E03CA000F05A
:10311000D1FC04211148FEF77CF900200A4908700F
:103120001F4908700021074800F087F90021082096
:10313000FEF794FF00220121024800F09BF900BF36
:1031400000BF10BD000C00405200002047505253F9
:10315000BFAABBFAB5E7C6BDC0AD0A000004024075
:10316000473531305F6F6E5F6F665F636F756E748A
:1031700065722025640A000047505253BFAABBFA6B
:10318000B5E7C6BDC0ADB8DF310A000047505253A5
:10319000BFAABBFAB5E7C6BDC0AD320A0000000049
:1031A0000100002047505253C1AACDF8B3C9B9A6B7
:1031B0000A000000F80E002047505253B4ABCAFD7D
:1031C000BEDD0A00200F002047505253B5C8B4FDA1
:1031D000B8FCD0C2CAB1BCE40A0000004750525348
:1031E000B8FCD0C2CAB1BCE4CDEA0A00CF4E090097
:1031F00047505253B9D8BBFABFAA0A000000024098
:1032000047505253B9D8BBFABDE10A007FB5054615
:103210000C4601211020FEF721FF0295ADF8044075
:103220000020ADF80C00ADF8060001A90F4800F031
:103230002BF92B208DF8000002208DF801008DF86D
:10324000020001208DF803006846FEF7A5F9012170
:10325000064800F0EFF801221146044800F00AF990
:103260000121024800F0E9F87FBD00000010004095
:1032700010B501210C4800F0ECF8A0B101210A487A
:1032800000F0D8F800211020FEF7E8FE00210648E3
:1032900000F0D3F800220121034800F0EBF8FEF71C
:1032A000C1F9FEF771FA10BD001000407FB5054668
:1032B0000C4601212020FEF7D1FE0295ADF8044016
:1032C0000020ADF80C00ADF8060001A90F4800F091
:1032D000DBF82C208DF8000000208DF80100012083
:1032E0008DF802008DF803006846FEF755F90121BC
:1032F000064800F09FF801221146044800F0BAF891
:103300000121024800F099F87FBD00000014004040
:1033100010B50121114800F09CF8F0B101210F48CF
:1033200000F088F810210E48FEF768F810B1012867
:1033300012D108E010210A48FEF76BF82021084856
:10334000FEF767F808E010210548FEF760F8202135
:103350000348FEF75CF800BF00BF10BD001400403A
:10336000000002407FB505460C4601210420FEF70F
:1033700085FE0295ADF804400020ADF80C00ADF8D4
:10338000060001A90F4800F07FF819208DF8000011
:1033900002208DF801008DF8020001208DF8030055
:1033A0006846FEF7F9F80121064800F043F80122CB
:1033B0001146044800F05EF80121024800F03DF893
:1033C0007FBD00000008014010B50121154800F044
:1033D00040F828B30121134800F02CF80022012105
:1033E000104800F047F800210E4800F026F8202190
:1033F0000D48FEF70CF8002201210C4800F03AF8C5
:1034000000210A4800F019F820210748FDF7FFFFC6
:1034100010210748FDF7FDFF20210548FDF7F9FFC2
:1034200010BD0000000801400004024000140040EC
:1034300000000240CA430282704721B1028842F074
:103440000102028004E002884FF6FE731A400280F7
:10345000704730B50246002000230024158A05EA93
:103460000103958905EA010413B10CB1012000E0C4
:10347000002030BD1AB183890B43838102E0838928
:103480008B4383817047000000220288B0F1804F97
:1034900008D0104B984205D00F4B984202D00F4BEA
:1034A000984204D14FF68F731A404B881A430C4B45
:1034B000984207D00B4B984204D04FF6FF431A4076
:1034C0000B891A4302804B68C3620B880385012372
:1034D000838270470004004000080040000C004058
:1034E000001000400014004000200D49087209201F
:1034F00008711F20C8704FF41670488200200874AD
:1035000036204871072088700420C8710020C860E8
:103510004FF496608882002008800876704700008B
:10352000F80E002010B540F22551064800F039F899
:1035300038B1044800F0EAF8C4B22146014800F06E
:10354000EAF810BD0044004008B540F22551074894
:1035500000F027F840B1054800F0D8F8C0B200905C
:103560000121684602F056F908BD000000480040FD
:1035700021B1828942F40052828104E082894DF6B1
:10358000FF731A408281704702460020B1F5007F28
:1035900000D100BF13880B400BB1012000E00020D8
:1035A000704770B50246002400230025002040F635
:1035B0006A16B14200D100BFC1F3421501F01F03EA
:1035C000012606FA03F3012D02D19689334006E065
:1035D000022D02D1168A334001E0968A33400C1244
:1035E000012606FA04F41688344013B10CB1012008
:1035F00000E0002070BDF0B5034600240026002541
:10360000002040F66A17B94200D100BF1846C1F346
:10361000421401F01F06012707FA06F5012C01D11B
:103620000C3004E0022C01D1103000E014301AB14B
:1036300007682F43076002E00768AF430760F0BDEB
:103640002DE9FF4705460E460024A14600BFA046CF
:10365000B08900B100BF2C8A24F44054F0880443A0
:103660002C82AC8941F20C608443B08831890843D4
:10367000718908430443AC81AC8A24F44074B08956
:103680000443AC826846FEF719FD1F48854202D10B
:10369000DDF80C9001E0DDF80890A88900F4004006
:1036A00040B109EBC90000EB091031684900B0FBDB
:1036B000F1F707E009EBC90000EB09103168890058
:1036C000B0FBF1F76420B7FBF0F00401200964219E
:1036D00001FB1078A88900F4004040B1322000EBD3
:1036E000C800B0FBF1F000F00700044308E032200E
:1036F00000EB08106421B0FBF1F000F00F00044370
:103700002C81BDE8FF870000003801400146888811
:10371000C0F308007047C1F308028280704700BF01
:10372000FEE700001CB501210220FEF787FC012006
:103730008DF8040000208DF806004FF480400090C2
:1037400003208DF8050069460748FDF7E9FD0020D4
:103750008DF804008DF807004FF400500090694682
:103760000148FDF7DDFD1CBD000402402DE9F04FCE
:103770008FB000240020049000BFFEF7DFFF8246D8
:10378000BAF1640F04D905A840F824A0601CC4B2A3
:10379000082CF2DB2CD14FF0000926E000251BE0BD
:1037A00005A850F8251005AA681C52F8200081428F
:1037B00010D905A9681C51F82000049005A850F8FC
:1037C0002510681C42F8201005A9049841F825002E
:1037D00001200D90681CC5B2601EA0EB0900A84234
:1037E000DEDC09F1010000F0FF09601E4845D5DC70
:1037F0000026032405E005A850F824000644601CB8
:10380000C4B2062CF7DB0320B6FBF0F63046FCF71B
:103810008FFE0A490090FCF7C5FC0190FCF7E0FE22
:103820000746074A074BFCF7FBFCCDE90201FCF712
:10383000BEFE834658460FB0BDE8F08F00E0A744B7
:103840009A9999999999A93F10B54C4800780128FF
:1038500002D0022809D109E0FFF788FF4849086033
:1038600046480078401C4549087085E0FFF77EFF18
:10387000444908600846006841490968884277D190
:1038800040480168404800681430814270D93D4882
:1038900001683D48006800F57A70814268D23B4873
:1038A0000068401F3749096888425DD9FEF7DAFE93
:1038B000FDF778FF3648408A34490968314A126872
:1038C000891A084433490860FDF756FB31480168FE
:1038D00031480068FDF73EFB3048018830480068F9
:1038E000FDF727FB2F4801782F480068FDF710FBF4
:1038F0002E4801782E480068FDF70AFB2D48017814
:103900002D480068FDF704FB2C4801782C4800681E
:10391000FDF7FEFAFDF7F2FA1F48006800681C493F
:1039200048821A490988174A1288891A88B2FDF70D
:1039300047FF46F2FF3142F20F70FFF767FC20218C
:103940002048FDF764FD002201211F48FFF792FD8A
:1039500000211D48FFF771FD10211C48FDF759FD9E
:1039600020211A48FDF755FD064800680749086000
:1039700001200249087000BF00BF10BDA800002050
:10398000AC000020B0000020A400002008000020AF
:10399000F80E0020B4000020300000204C00002071
:1039A000380000204E0000203C0000204F00002086
:1039B0004000002050000020440000205100002062
:1039C00048000020000402400014004000000240B3
:1039D0002DE9F0410646354640211848FDF717FD10
:1039E000002427E02F4607F08007802F04D1802194
:1039F0001248FDF70EFD03E080211048FDF707FD9A
:103A000002F000FD6806050E40210C48FDF701FD9F
:103A100002F0F8FC40210948FDF7F9FC02F0F2FC45
:103A2000072C03D180210548FDF7F3FC02F0EAFCE6
:103A3000601CC4B2082CD5DBBDE8F0810004024054
:103A400010B50446FDF732FD7820FFF7C1FFFDF702
:103A500057FD00B10EE00020FFF7BAFFFDF750FD63
:103A600000B107E02046FFF7B3FFFDF749FD00B1C5
:103A700000E000BFFDF732FD10BD10B50446FDF7B4
:103A800015FD7820FFF7A4FFFDF73AFD00B10EE029
:103A90004020FFF79DFFFDF733FD00B107E0204612
:103AA000FFF796FFFDF72CFD00B100E000BFFDF72A
:103AB00015FD10BD0FB4054B10B503A9044A0298BB
:103AC00000F018F810BC5DF814FB0000414000083D
:103AD000F40E002002E008C8121F08C1002AFAD123
:103AE00070477047002001E001C1121F002AFBD17E
:103AF000704700002DE9FF4F8DB00F4605460026A8
:103B000006E025280BD0DDE90F1290476D1C761CCE
:103B100028780028F5D111B03046BDE8F08F002498
:103B2000A246A1460122EC4900E0044315F8013FFA
:103B3000203B02FA03F00842F7D128782A2810D057
:103B40006FF02F022878A0F13001092914D80AEB70
:103B50008A0102EB410144F0020400EB010A6D1CF2
:103B6000F0E701CF5FEA000A03D544F40054CAF13C
:103B7000000A44F002046D1C28782E2817D115F88D
:103B8000010F44F004042A280ED06FF02F02287889
:103B9000A0F1300109290AD809EB890102EB4101A2
:103BA00000EB01096D1CF2E757F8049B6D1C2878A7
:103BB0006C280FD006DC4C2817D068280DD06A2856
:103BC00014D104E0742810D07A280FD10DE044F409
:103BD00000140AE044F4801401E044F440146978CD
:103BE000814202D104F580146D1C6D1C2A786E2A66
:103BF0001FD00CDC632A31D004DC002A8BD0582A79
:103C000011D1A3E0642A68D0692A0CD165E0732A37
:103C10002ED004DC6F2A73D0702A04D19BE0752A61
:103C20006FD0782A6ED01046DDE90F129047761CCF
:103C300050E1C4F30250022806D0032809D004281A
:103C400001CF09D0066045E101CFF117C0E900615D
:103C500040E101CF06803DE106703BE117F8040B1F
:103C60008DF8000000208DF80100EB46012003E0F4
:103C700057F804BB4FF0FF3061074FF0000102D44A
:103C80000DE008F10101884649450FDA8045F8DB6F
:103C90001BF808100029F4D108E008F1010188465A
:103CA0008142FADB1BF808100029F6D1DDE90F2369
:103CB000AAEB08008146214600F036F9304400EBBB
:103CC000080604E0DDE90F121BF8010B9047B8F17C
:103CD0000108F7D221464846F7E00A21C4F302530F
:103CE0004FF0000B0891022B04D001CFC117032B1A
:103CF00009D00AE0FF1D27F00707F7E8020108E0F6
:103D000032E01FE020E000B2C117042B01D140B225
:103D1000C117031E71F1000307DA4FF0000CD0EB5E
:103D20000C006CEB01012D2302E0230504D52B23AD
:103D30008DF82430012303E0E30701D02023F7E7C7
:103D4000984658E00A2110E010210EE010204FF0B4
:103D5000000B08900CE010214FF0000B44F004041D
:103D60004FF00809089103E008214FF0000B08917B
:103D7000C4F30253022B04D001CF0021032B06D041
:103D800006E0FF1D27F00707F7E8020103E080B215
:103D9000042B00D1C0B24FF0000823072BD5702AA6
:103DA00007D0DDF820C08CF0100C5CEA0B0C05D0BD
:103DB0000EE040238DF82430012308E050EA01038F
:103DC00006D030238DF824308DF825200223984624
:103DD000DDF820C08CF0080C5CEA0B0C0BD150EA2B
:103DE000010301D1630706D530238DF824304FF04D
:103DF0000108A9F10109582A04D038A20B9208AA97
:103E00000A920BE03AA2F9E75B46089AFCF717FC26
:103E10000B9B9B5C0A9A521E0A92137050EA010295
:103E2000F2D10A98ADEB000000F1200B600702D53B
:103E300024F4803401E04FF00109D94502DDA9EBFB
:103E40000B0000E0002000EB0B0141440890AAEBBE
:103E5000010AE00306D4DDE90F232146504600F0B5
:103E600063F806444FF0000908E009A911F80900B9
:103E7000DDE90F12904709F10109761CC145F4DB19
:103E8000E0030CD5DDE90F232146504600F04CF845
:103E9000064404E0DDE90F1230209047761C0899B3
:103EA000481E08900029F5DC08E00A980A99007875
:103EB000491C0A91DDE90F129047761CBBF1000105
:103EC000ABF1010BF1DC21465046DDE90F2300F098
:103ED00019F806446D1C1BE6092801003031323305
:103EE0003435363738396162636465660000000036
:103EF0003031323334353637383941424344454620
:103F0000000000002DE9F041044600251E4617463A
:103F1000880404D405E039462020B0476D1C641E97
:103F2000F9D52846BDE8F0812DE9F0410446002589
:103F30001E469046C80301D5302700E0202788049C
:103F400004D505E041463846B0476D1C641EF9D5DE
:103F50002846BDE8F08197210DE06B2007E0302274
:103F600001E0531EDAB2002AFBDC431ED8B200285F
:103F7000F5DC4B1ED9B20029EFDC704710B56FF0AD
:103F80000400FEF783FE0A4800680A49B0FBF1F01E
:103F9000094908700846007800EB4001C1EBC010E9
:103FA0004FF6FF7101EAC0000449088010BD00000F
:103FB0006800002000127A009E000020A00000206F
:103FC0000146114A12884A434FF0E0235A61002209
:103FD0009A611A46126942F001021A6100BF4FF05D
:103FE000E022106900F001021AB100F48032002AC8
:103FF000F5D04FF0E022126922F001024FF0E023E9
:104000001A6100229A617047A000002001B581B0BA
:1040100000200090694601AA507808701078487016
:10402000BDF800000CBD0146080601F47F4240EADD
:10403000022001F47F0240EA122040EA116070473A
:1040400070B504460D46E1B20548FFF764FB00BFBA
:1040500080210348FFF798FA0028F9D0204670BD68
:1040600000440040024612B102F0070028B90829B6
:1040700001D8002070470120FCE702F00700C0F1E2
:104080000800884201D30020F4E70120F2E730B5B0
:1040900002460B460021002400250AB9481E30BD07
:1040A000002108E0545C581A401E155C5554581AFB
:1040B000401E1454491CB1EB530FF3D30020EEE71C
:1040C0002DE9F04104460D460027002604B135B91C
:1040D000ABA0FFF7EFFC4FF0FF30BDE8F08100F040
:1040E00025FC064628782178884203D0AEA0FFF749
:1040F000E1FC012768786178884203D0B0A0FFF71F
:10410000D9FC0127D5F80200D4F80210884203D068
:10411000B4A0FFF7CFFC0127D5F80600D4F80610AD
:10412000884203D0B8A0FFF7C5FC0127D5F80A00E4
:10413000D4F80A1088420AD0BE480068301A41F20A
:104140007071884203D3BCA0FFF7B4FC0127D5F8F7
:104150000E00D4F80E1088420AD0B6480068301A13
:1041600041F27071884203D3BAA0FFF7A3FC012784
:10417000D5F81200D4F8121088420AD0AD48006871
:10418000301A41F27071884203D3B8A0FFF792FC55
:104190000127D5F81600D4F8161088420AD0A54891
:1041A0000068301A41F27071884203D3B5A0FFF75E
:1041B00081FC0127D5F81A00D4F81A1088420AD0D9
:1041C0009C480068301A41F27071884203D3B3A052
:1041D000FFF770FC0127D5F81E00D4F81E108842A6
:1041E0000AD094480068301A41F27071884203D3B3
:1041F000B0A0FFF75FFC0127D5F82200D4F8221009
:1042000088420AD08B480068301A41F270718842A7
:1042100003D3ADA0FFF74EFC0127D5F82600D4F854
:10422000261088420AD083480068301A41F2707123
:10423000884203D3A9A0FFF73DFC0127D5F82A0047
:10424000D4F82A1088420AD07A480068301A41F21D
:104250007071884203D3A6A0FFF72CFC0127D5F884
:104260002E00D4F82E1088420AD072480068301A06
:1042700041F27071884203D3A3A0FFF71BFC012712
:10428000D5F83200D4F8321088420AD06948006864
:10429000301A41F27071884203D3A0A0FFF70AFCE4
:1042A0000127D5F83600D4F8361088420AD0614884
:1042B0000068301A41F27071884203D39CA0FFF766
:1042C000F9FB0127D5F83A00D4F83A1088420AD011
:1042D00058480068301A41F27071884203D39AA09E
:1042E000FFF7E8FB0127D5F83E00D4F83E108842DE
:1042F0000AD050480068301A41F27071884203D3E6
:1043000096A0FFF7D7FB0127D5F84200D4F842105A
:1043100088420AD047480068301A41F270718842DA
:1043200003D394A0FFF7C6FB0127D5F84600D4F8C5
:10433000461088420AD03F480068301A41F2707136
:10434000884203D390A0FFF7B5FB0127D5F84A00B8
:10435000D4F84A1088420AD036480068301A41F230
:104360007071884203D38EA0FFF7A4FB0127012FB1
:1043700003D100F0DBFA2F4908603846ADE60000B3
:1043800067697A436865636B5265706F7274204524
:1043900072726F72202C20496C6C6567616C2050C2
:1043A0006172616D0A00000076616C756542757A14
:1043B0007A6572204368616E6765640A00000000D8
:1043C00076616C756552656D696E645F6472696E65
:1043D0006B5F737769746368204368616E676564B7
:1043E0000A00000076616C7565546F74616C5F61E2
:1043F0006D6F756E745F6F665F7761746572204371
:1044000068616E6765640A0076616C756552656304
:104410006F6D6D656E6465645F616D6F756E745F01
:104420006F665F7761746572204368616E6765646B
:104430000A000000E40E002076616C756554656D1D
:104440007065726174757265204368616E6765643A
:104450000A00000076616C756568756D6964697441
:1044600079204368616E6765640A000076616C7547
:1044700065525353495F31204368616E6765640A32
:104480000000000076616C7565525353495F32201D
:104490004368616E6765640A0000000076616C75B0
:1044A00065525353495F33204368616E6765640A00
:1044B0000000000076616C75654D6F6E7468204376
:1044C00068616E6765640A0076616C756544617940
:1044D000204368616E6765640A00000076616C7550
:1044E00065486F7572204368616E6765640A0000F5
:1044F00076616C75654D696E757465204368616E93
:104500006765640A0000000076616C756557617428
:104510006572204368616E6765640A0076616C7538
:10452000654C41435F31204368616E6765640A00F2
:1045300076616C756543656C6C49445F31204368F6
:10454000616E6765640A000076616C75654C414375
:104550005F32204368616E6765640A0076616C753E
:104560006543656C6C49445F32204368616E6765E2
:10457000640A000076616C75654C41435F332043EB
:1045800068616E6765640A0076616C756543656C89
:104590006C49445F33204368616E6765640A0000BC
:1045A00076616C756559656172204368616E6765F7
:1045B000640A0000F8B505460C4616460DB104B174
:1045C0002EB932A0FFF776FA4FF0FF30F8BD287809
:1045D00000F0010098B111212278601C81542078EC
:1045E000401C207001206B1C0246002100900846F0
:1045F00001F0F4F908B1012000E0002030702878C3
:10460000C0F3400098B112212278601C81542078B8
:10461000401C207001206B1C0246014600900020C7
:1046200001F0DCF908B1012000E00020707028786A
:10463000C0F3800088B113212278601C8154207857
:10464000401C20706888FFF7E1FC07463A460021CD
:10465000012001F02DFAC6F802002878C0F3C0004E
:1046600088B114212278601C81542078401C20706D
:10467000A888FFF7CBFC07463A460021012001F04D
:1046800017FAC6F806000020A0E7000067697A4420
:10469000617461506F696E74324576656E74204541
:1046A00072726F72202C20496C6C6567616C2050AF
:1046B0006172616D0A000000F8B505460C4605B14F
:1046C0002CB95FA0FFF7F6F94FF0FF30F8BD0020DE
:1046D0002070AD1C15F8020C234601220021009029
:1046E000084601F03BF915F8010C2346012211465A
:1046F0000090002001F032F901212046FFF7C7FCAD
:10470000AA686FF01D01012001F0D8F96071EA6814
:104710000021012001F0D2F9A0712A6900210120B5
:1047200001F0CCF9E0716A690021012001F0C6F9BD
:104730002072AA690021012001F0C0F96072EA69C3
:104740000021012001F0BAF9A0722A6A002101209B
:1047500001F0B4F9E0726A6A0021012001F0AEF9BB
:104760002073AA6A0021012001F0A8F960732A6869
:104770000021012001F0A2F986B23046FFF746FC85
:10478000A4F801006A680021012001F097F986B2BF
:104790003046FFF73BFCA4F80300EA6A0021012041
:1047A00001F08CF986B23046FFF730FCE0812A6BCD
:1047B0000021012001F082F986B23046FFF726FC85
:1047C00020826A6B0021012001F078F986B2304620
:1047D000FFF71CFC6082AA6B0021012001F06EF93A
:1047E00086B23046FFF712FCA082EA6B002101205E
:1047F00001F064F986B23046FFF708FCE0822A6CCB
:104800000021012001F05AF986B23046FFF7FEFB85
:1048100020836A6C0021012001F050F986B23046F5
:10482000FFF7F4FB6083AA6CAD1E0021012001F0AC
:1048300045F986B23046FFF7E9FBA083002045E743
:1048400067697A44617461506F696E74733252653E
:10485000706F727444617461204572726F72202CA3
:1048600020496C6C6567616C20506172616D0A0053
:1048700070B5054600F05AF804461D492846FFF772
:104880001FFC012813D11BA0FFF714F918496C393C
:104890002846FFF711FF28B91E2215496C3904205C
:1048A00000F0F2FF4E2229461148FBF757FC17484B
:1048B000B4FBF0F100FB1140C8B915480068A042F4
:1048C00015D014A0FFF7F6F809496C392846FFF710
:1048D000F3FE28B91E2206496C39042000F0D4FFEB
:1048E0004E2229460248FBF739FC0948046070BD96
:1048F000E01000206368616E6765642C207265704B
:104900006F727420646174610A000000009F2400CB
:10491000E80E0020496E666F3A2036303053207220
:1049200065706F727420646174610A0001480068E8
:1049300070470000E00E002010B5174890F8740092
:10494000012827D1144890F8730002281DDAFFF7D8
:10495000EDFF1149D1F8AA10401AC8281AD9FFF75B
:10496000E5FF04460C4890F87330D0F8AA202146A1
:104970000AA0FFF79FF800F0A5FE074890F8730023
:10498000401C054981F8730004E03B210248733064
:10499000FBF7FDFB10BD00006E0F00205761726E2B
:1049A000696E673A67697A50726F746F636F6C52A1
:1049B0006573656E644461746120256420256420FC
:1049C00025640A003EB50446002524B913A0FFF76C
:1049D00071F8681E3EBD20680090606801909DF8E7
:1049E0000400401CC0B28DF804000520FFF70EFB48
:1049F000ADF802000921684600F0A2FE8DF808001B
:104A00000921684601F0B0FE0546002D03DA29466B
:104A10000DA0FFF74FF82846DCE700004552523A58
:104A20002067697A50726F746F636F6C436F6D6D3E
:104A30006F6E41636B206461746120697320656DE2
:104A4000707479200A0000004552523A2075617254
:104A500074207772697465206572726F72202564A4
:104A6000200A0000FEB504460E46002524B914A015
:104A7000FFF720F8681EFEBD684600F0D7F9122047
:104A80008DF8040060798DF805000620FFF7BEFA66
:104A9000ADF802008DF808600A21684600F050FE6B
:104AA0008DF809000A21684601F05EFE0546002DDA
:104AB00003DA29460DA0FEF7FDFF2846DBE70000DC
:104AC00067697A50726F746F636F6C4572726F7240
:104AD000436D64204572726F72202C20496C6C65A6
:104AE00067616C20506172616D0A00004552523A54
:104AF0002075617274207772697465206572726FB7
:104B000072202564200A000030B59DB004460025BF
:104B10002CB92BA0FEF7CEFF681E1DB030BD684635
:104B200000F084F902208DF8040060798DF805000A
:104B30002FA103C9CDE9020130A103C9CDE90401C8
:104B400031A103C9CDE9080132A103C9CDE90601AC
:104B5000202233A10AA8FBF701FB202239A10DF185
:104B60005200FBF7FBFA0020CDF84A00CDF84E00CA
:104B70009DF851008DF851009DF8510040F0020160
:104B80008DF851100020FFF741FAADF848006F2072
:104B9000FFF73CFAADF802007321684600F0D0FD43
:104BA0008DF872007321684601F0DEFD0546002D88
:104BB00003DA29462CA0FEF77DFF2846ADE700006A
:104BC00067697A50726F746F636F6C476574446580
:104BD00076696365496E666F204572726F72202C2C
:104BE00020496C6C6567616C20506172616D0A00D0
:104BF0003030303030303034000000003030303071
:104C0000303030320000000030333033303030305C
:104C1000000000003033303130313030000000000F
:104C2000373832306663313336663336343662397C
:104C3000383535653465303863386331373532633C
:104C40000000000064303962393862306466343103
:104C500034653431613564316135373631636262D0
:104C600065636137000000004552523A2075617259
:104C700074207772697465206572726F7220256482
:104C8000200A00002DE9FE4F80460E4617464FF0E1
:104C9000000B002002908146824600253446009099
:104CA000B8F1000F01D006B137B950A0FEF702FFEE
:104CB0004FF0FF30BDE8FE8F404601F07AFC00F077
:104CC000FF0ABAF1000F02D14FF0FF30F2E74FF0C8
:104CD00000095DE0012201A9404601F0A7FC8346DE
:104CE000BBF1000F52D04D480078FF281FD19DF82E
:104CF0000400FF281BD14A48007848B9FF202070E3
:104D0000607002204749088001204549087034E05E
:104D100044480088042830DD42480088A8422CD04E
:104D2000FF202070607002203E49088025E03B484B
:104D30000078FF2803D19DF8040055281DD038487D
:104D40000078012819D19DF804003649098860547B
:104D500034480088401C33490880084600880428ED
:104D60000BDD0094009C6088FFF750F9001D85B2B0
:104D70002C480088A84200D10CE09DF80400274987
:104D8000087029480078401C2749087009F101097A
:104D9000D1459FDB00BF23480088042823DD21483C
:104DA0000088A8421FD11F480188204600F0C8FC97
:104DB00002901C480088401E215C029881420FD15D
:104DC0002A4621463046FBF7C9F93D8000201449A8
:104DD000087014490880144908701049087069E780
:104DE0006FF0010066E7012064E7000067697A5010
:104DF000726F746F636F6C4765744F6E655061635B
:104E00006B6574204572726F72202C20496C6C6542
:104E100067616C20506172616D0A0000F00E002025
:104E2000EC0E0020EE0E0020F10E002010B504461E
:104E30002CB907A0FEF73EFE4FF0FF3010BD00205A
:104E400020606060FF20207060700020F6E70000A6
:104E50004552523A2067697A50726F746F636F6C73
:104E600048656164496E697420686561642069738E
:104E700020656D707479200A000000002DE9F04F64
:104E80009BB006468B461746994600201A908246EC
:104E9000804600256C46BBF1000F06D130A0FEF71E
:104EA00009FE681E1BB0BDE8F08FB9F1010F06D1F5
:104EB00096F8088008F10600384485B201E0781DB4
:104EC00085B22B46424639462BA0FEF7F3FDFF2064
:104ED00004F8010B04F8010B281204F8010B04F884
:104EE000015B3079401C04F8010B707904F8010B68
:104EF000002004F8010B04F8019B4FF0080AB9F1F7
:104F0000010F0CD104F8018B0AF1010A0DEB0A0024
:104F1000424606F10901FBF721F9C24444442FB18E
:104F20000DEB0A003A465946FBF718F9291D684669
:104F300000F006FC0146E81C0DF80010291D68462B
:104F400001F012FC1A901A98002806DA14A01A9997
:104F5000FEF7B0FD6FF00100A4E70020A2E700001B
:104F60005B4552525D202064617461204973204E7C
:104F7000756C6C200A0000006C656E203D20256475
:104F8000202C20734469644C656E203D20256420EC
:104F90002C646174615F6C656E203D2025640A009D
:104FA00075617274207772697465206572726F72B0
:104FB000202564200A0000002DE9F04780460C46B9
:104FC00017461D46089E94F800900CB105B136B9FD
:104FD0002FA0FEF76FFD4FF0FF30BDE8F087B8F16E
:104FE000000F53D116213648FBF7D1F8B9F1010F64
:104FF00006D0B9F1020F11D0B9F1050F44D123E069
:105000002F4A76322E49601CFFF7D4FA01202C4932
:10501000AE39087000250020306036E0284958314C
:1050200001F16C00FFF748FB50B91E2224495831AA
:10503000681CFBF793F8032028701F20306002E003
:105040004FF0FF30C9E720E07A1E611C1C487A3817
:10505000FBF784F8781E1A49AE39C1F867001021B1
:105060001748AE3890F8AE20AF308154AF3890F882
:10507000AE00401C1249AE3981F8AE000320087022
:1050800000250020306000E000BF00BF0020A4E742
:1050900067697A50726F746F636F6C49737375656B
:1050A0006450726F63657373204572726F72202C47
:1050B00020496C6C6567616C20506172616D0A00FB
:1050C0001C10002070B5044625462CB90EA0FEF732
:1050D000F1FC4FF0FF3070BD412205F108010E4890
:1050E000FBF73CF80F210D4890F8F020F130815487
:1050F000F13890F8F000401C084981F8F0000520D4
:1051000008700020E7E700004E54502069732065C6
:105110006D707479200A00003B1100206E0F002092
:1051200010B504462CB9CAA0FEF7C4FC4FF0FF30FE
:1051300010BD2089FEF76AFF2081D1480078C0F3B6
:105140008000217AC1F38001884256D0207AC0F3D2
:105150008000002829D0207A00F0010078B10021D9
:10516000C84890F8C420C5308154C53890F8C400B0
:10517000401CC44981F8C400C3A0FEF79BFC207A00
:10518000C0F34000002838D00121BE4890F8C42068
:10519000C5308154C53890F8C400401CB94981F825
:1051A000C400C1A0FEF786FC27E0207A00F00100D1
:1051B00078B10021B34890F8C420C5308154C53877
:1051C00090F8C400401CAF4981F8C400AEA0FEF7BF
:1051D00071FC207AC0F3400078B10221A94890F810
:1051E000C420C5308154C53890F8C400401CA5497E
:1051F00081F8C400B3A0FEF75DFCA1480078C0F3BD
:10520000C000217AC1F3C00188422CD0207AC108A5
:105210009B48007861F3C30099490870207AC0F375
:10522000C00080B10321974890F8C420C530815454
:10523000C53890F8C400401C924981F8C400A8A069
:10524000FEF738FC0FE004218E4890F8C420C530EA
:105250008154C53890F8C400401C8A4981F8C400C4
:10526000A7A0FEF727FC86480078C0F30010217A3B
:10527000C1F3001188422CD0207A010980480078BF
:1052800061F304107E490870207AC0F3001080B1E9
:1052900005217C4890F8C420C5308154C53890F869
:1052A000C400401C774981F8C4009DA0FEF702FCB1
:1052B0000FE00621734890F8C420C5308154C538EA
:1052C00090F8C400401C6F4981F8C4009CA0FEF710
:1052D000F1FB6B480078C0F34010217AC1F3401114
:1052E00088422CD0207A41096548007861F3451046
:1052F00063490870207AC0F3401080B107216148EB
:1053000090F8C420C5308154C53890F8C400401CC2
:105310005C4981F8C40093A0FEF7CCFB0FE00821A4
:10532000584890F8C420C5308154C53890F8C4005E
:10533000401C544981F8C40091A0FEF7BBFB5048C3
:105340004078C0F3C001607AC0F3C00081422CD025
:10535000607AC1084A48407861F3C3004849487000
:10536000607AC0F3C00080B10B21464890F8C42099
:10537000C5308154C53890F8C400401C414981F8BB
:10538000C40087A0FEF796FB0FE00C213D4890F883
:10539000C420C5308154C53890F8C400401C394938
:1053A00081F8C40085A0FEF785FB35484078C0F33E
:1053B0000011607AC0F3001081422CD0607A01099C
:1053C0002F48407861F304102D494870607AC0F38B
:1053D000001080B109212B4890F8C420C5308154B9
:1053E000C53890F8C400401C264981F8C4007BA051
:1053F000FEF760FB0FE00A21224890F8C420C53078
:105400008154C53890F8C400401C1E4981F8C4007E
:1054100079A0FEF74FFB0D211A4890F8C420C53043
:105420008154C53890F8C400401C164981F8C40066
:10543000607A00F0070081F8C001084690F8C011BA
:1054400074A0FEF737FB02200E49087000206FE6BB
:1054500067697A50726F746F636F6C4D6F64756CAF
:1054600065537461747573204572726F72202C20BD
:10547000496C6C6567616C20506172616D0A000057
:10548000F20E00206E0F00204F6E426F6172646951
:105490006E673A20536F66744150206F72205765D3
:1054A00062206D6F64650A004F6E426F61726469BD
:1054B0006E673A204169724C696E6B206D6F64654E
:1054C0000A0000004F6E426F617264696E673A2095
:1054D00053746174696F6E206D6F64650A0000001B
:1054E00057694669207374617475733A20696E2038
:1054F00062696E64696E67206D6F64650A00000002
:1055000057694669207374617475733A206F7574B6
:105510002062696E64696E67206D6F64650A0000C1
:1055200057694669207374617475733A20636F6EAE
:105530006E656374656420726F757465720A00002D
:1055400057694669207374617475733A206469738E
:10555000636F6E6E656374656420726F75746572D7
:105560000A00000057694669207374617475733AC4
:1055700020636F6E6E6563746564206D326D0A0022
:1055800057694669207374617475733A206469734E
:10559000636F6E6E6563746564206D326D0A000022
:1055A00057694669207374617475733A206170702D
:1055B00020636F6E6E6563740A0000005769466968
:1055C000207374617475733A206E6F20617070205F
:1055D000636F6E6E6563740A000000005769466968
:1055E000207374617475733A20696E2074657374E6
:1055F000206D6F64650A0000576946692073746105
:105600007475733A206F75742074657374206D6FB0
:1056100064650A0052535349206973202564200AA7
:105620000000000070B5044625462CB917A0FEF70F
:1056300041FA4FF0FF3070BD1948A9680160E96870
:105640004160298A0181A97C8172A0F2C111B1F85F
:10565000C101FEF7DBFC1349A1F8C101D1F8C90172
:10566000FEF7E1FC0F49C1F8C9010E210D4890F881
:10567000DA20DB308154DB3890F8DA00401C09492D
:1056800081F8DA00042008700020D4E74552523A2D
:10569000204E545020697320656D707479200A0083
:1056A0002F1100206E0F002010B5FFF73FF90446C0
:1056B00000BFFFF73BF9001BB0F5167FF9D900F0EA
:1056C00053FF10BD10B500240E4890F8740000B9C7
:1056D00010BD0DA0FEF7EEF90A48B0F8A81075301D
:1056E00001F042F804460748B0F8A800A04202D0F2
:1056F0000DA0FEF7DFF9FFF719F90249C1F8AA007A
:1057000000BFE5E76E0F00205761726E696E673A61
:105710002074696D656F75742C20726573656E6495
:105720002064617461200A004552523A2072657308
:10573000656E642064617461206572726F720A0024
:1057400010B502460024002302B109B9002010BDA3
:10575000022303E0D05C2044C4B25B1C481E984284
:10576000F8D82046F3E7000070B504460D462CB982
:105770000FA0FEF79FF94FF0FF3070BD3B2112489C
:10578000FAF705FD2A4621460F48801CFAF7E6FC89
:105790000D487338A0F8A850012180F87410FFF765
:1057A000C5F809497339C1F8AA000020E5E70000EF
:1057B0004552523A206461746120697320656D70AE
:1057C0007479200A00000000E10F002070B5044643
:1057D000094D2CB909A0FEF76DF94FF0FF3070BDEF
:1057E0002879401C2179884204D13B210248801E3F
:1057F000FAF7CDFC0020F2E7E30F00204552523AC1
:10580000206461746120697320656D707479200A69
:105810000000000070B504460D46002624B90AA019
:10582000FEF748F9701E70BD2A4621460E4800F06A
:105830004EFF0646AE4205D00CA0FEF73BF94FF0F6
:10584000FF30F0E73046EEE74552523A2067697A7A
:1058500050757444617461206275662069732065B7
:105860006D707479200A00007C1100204552523A74
:10587000204661696C656420746F2072625772699A
:105880007465200A00000000F0B58BB005460E4696
:10589000174600242EB91FA0FEF70CF9601E0BB0AE
:1058A000F0BD01A8FFF7C2FA05208DF808002348D3
:1058B00090F86B10D0F86B00401C204AC2F86B00C7
:1058C000C8B28DF809008DF80C502420FEF79EFB1D
:1058D000ADF806003A4631460DF10D00FAF73EFCF0
:1058E000282101A8FFF72CFF8DF82B00282101A803
:1058F00000F03AFF0446002C06DA214610A0FEF71D
:10590000D9F86FF00100CAE7282101A8FFF72CFFA2
:105910002046C4E767697A5265706F727444617497
:1059200061204572726F72202C20496C6C65676132
:105930006C20506172616D0A000000006E0F002043
:105940004552523A207561727420777269746520ED
:105950006572726F72202564200A00002DE9F047FD
:1059600004460D461746089E4FF00009CA46C84631
:105970001BB94FF0FF30BDE8F08739462846FEF7E7
:1059800071FB8046B8F1000F07D1185D05F00701E3
:1059900006FA01F1084318551EE0B8F1010F1BD1BA
:1059A000F0B205F00701C1F1080140FA01F905F074
:1059B0000700C0F10801FF20084100EA060A601C48
:1059C000185C40EA0900611C5854185D05F0070195
:1059D0000AFA01F1084318550020CCE72DE9F04FF1
:1059E0008FB005460C4616469946189F4FF0000AA0
:1059F000D34600200E908046B9F1000F00D027B9A1
:105A00004FF0FF300FB0BDE8F08F3A46494601A88D
:105A1000FAF7A4FB012F09D9394601A8FEF737FB95
:105A2000B0F1FF3F02D14FF0FF30EBE731462046A7
:105A3000FEF718FB8246BAF1000F0CD101A8405DB9
:105A400004F007010841C6F10802FF211141084096
:105A500040EA080821E0BAF1010F1ED101A9681C33
:105A6000085C04F00701C1F10801711AC1F10802D4
:105A7000FF21114100EA010B01A8405D04F007017C
:105A800008410E9004F00700C0F108010BFA01F084
:105A900040EA08080E9848EA00084046B2E70000CD
:105AA00002480068401C014908607047E00E002071
:105AB00010B50346002002FB031010BD10B50346CD
:105AC0000020541AB4FBF3F010BD00002DE9FF5F75
:105AD00080460F4693464FF0000A3E46B9463C4684
